:020000040800F2
:10000000009000203D080008CD050008CF0500083D
:1000100000000000000000000000000000000000E0
:10002000000000000000000000000000D1050008F2
:100030000000000000000000D3050008D5050008FE
:100040008D080008000000008D0800088D080008D9
:100050008D0800088D0800088D0800088D0800082C
:10006000000000008D0800088D0800088D080008B9
:100070008D0800088D0800088D08000800000000A9
:100080008D0800088D0800088D0800088D080008FC
:100090008D0800088D0800088D0800088D080008EC
:1000A0008D0800088D0800088D0800088D080008DC
:0800B0008D0800088D0800080E
:1000B80010B5064C2378002B07D1054B002B02D036
:1000C800044800E000BF0123237010BD4C08002045
:1000D80000000000F0350008044B10B5002B03D0D9
:1000E8000349044800E000BF10BDC04600000000FE
:1000F80050080020F0350008002243088B4274D3D2
:1001080003098B425FD3030A8B4244D3030B8B4210
:1001180028D3030C8B420DD3FF22090212BA030C19
:100128008B4202D31212090265D0030B8B4219D3FA
:1001380000E0090AC30B8B4201D3CB03C01A52411A
:10014800830B8B4201D38B03C01A5241430B8B4262
:1001580001D34B03C01A5241030B8B4201D30B034B
:10016800C01A5241C30A8B4201D3CB02C01A524172
:10017800830A8B4201D38B02C01A5241430A8B4235
:1001880001D34B02C01A5241030A8B4201D30B021E
:10019800C01A5241CDD2C3098B4201D3CB01C01A38
:1001A800524183098B4201D38B01C01A5241430942
:1001B8008B4201D34B01C01A524103098B4201D330
:1001C8000B01C01A5241C3088B4201D3CB00C01A9D
:1001D800524183088B4201D38B00C01A5241430815
:1001E8008B4201D34B00C01A5241411A00D201463A
:1001F800524110467047FFE701B5002000F0F0F8C3
:1002080002BDC0460029F7D076E7704703460B4386
:100218007FD4002243088B4274D303098B425FD3F7
:10022800030A8B4244D3030B8B4228D3030C8B4223
:100238000DD3FF22090212BA030C8B4202D3121209
:10024800090265D0030B8B4219D300E0090AC30BDE
:100258008B4201D3CB03C01A5241830B8B4201D38B
:100268008B03C01A5241430B8B4201D34B03C01A74
:100278005241030B8B4201D30B03C01A5241C30AEC
:100288008B4201D3CB02C01A5241830A8B4201D35D
:100298008B02C01A5241430A8B4201D34B02C01A47
:1002A8005241030A8B4201D30B02C01A5241CDD2EC
:1002B800C3098B4201D3CB01C01A524183098B4237
:1002C80001D38B01C01A524143098B4201D34B0120
:1002D800C01A524103098B4201D30B01C01A524183
:1002E800C3088B4201D3CB00C01A524183088B420A
:1002F80001D38B00C01A524143088B4201D34B00F3
:10030800C01A5241411A00D2014652411046704764
:100318005DE0CA0F00D04942031000D34042534069
:1003280000229C4603098B422DD3030A8B4212D329
:10033800FC22890112BA030A8B420CD3890192115B
:100348008B4208D3890192118B4204D389013AD098
:10035800921100E08909C3098B4201D3CB01C01A6D
:10036800524183098B4201D38B01C01A5241430980
:100378008B4201D34B01C01A524103098B4201D36E
:100388000B01C01A5241C3088B4201D3CB00C01ADB
:10039800524183088B4201D38B00C01A5241D9D2F3
:1003A80043088B4201D34B00C01A5241411A00D274
:1003B8000146634652415B10104601D34042002B70
:1003C80000D54942704763465B1000D3404201B5EF
:1003D800002000F005F802BD0029F8D016E77047A4
:1003E8007047C046F0B5CE46474680B58BB014225C
:1003F800002105A801F0C8FB2F4B596B202211439F
:100408005963596B0A400192019A596B04221143AE
:100418005963596B0A400292029A5A6B01252A4382
:100428005A635A6B2A400392039A5A6B0226324344
:100438005A635B6B33400493049BE0211F4F0022F7
:100448000902380000F098FB80235B009946A0233E
:10045800DB05984600224946180000F08DFB07236B
:10046800059384239B0306930024079405A9144845
:1004780000F0C6FA80239B01059306950796089617
:1004880005A9380000F0BCFAC0231B0205930695A5
:100498000794089405A9380000F0B2FA4B46059372
:1004A80006950794089405A9404600F0A9FA0BB0F0
:1004B800C0BCB946B046F0BD001002400004005070
:1004C8000008005000B583B00190044B012201A937
:1004D800034801F0B1F9019803B000BDFFFF000027
:1004E8006C08002072B6FEE700B593B034220021F4
:1004F80005A801F049FB1022002101A801F044FBE6
:100508008020800000F03EFB0123059380235B02DE
:10051800069302230C9301330D931D330E93183B5E
:100528000F9380239B02109380239B05119305A8AA
:1005380000F052FB00280ED107230193053B0293DC
:10054800002303930493022101A800F0F3FD00287F
:1005580003D113B000BDFFF7C5FFFFF7C3FF0000CD
:1005680010B500F0BDF9FFF7BFFFFFF73BFF00F044
:100578007FF800F0B5F8044801F0AAFBFA208000E3
:1005880000F0D4F9F7E7C0460836000800B583B094
:100598000B4B196C012211431964196C0A40009223
:1005A800009ADA6B802149050A43DA63DB6B0B405A
:1005B8000193019BC020C00000F0CAF903B000BD40
:1005C80000100240FEE7FEE77047704710B500F0E4
:1005D8009BF910BD70B50C001600002504E000E082
:1005E80000BF207001350134B542F8DB300070BD22
:1005F80070B51600002405E04D1C0878FFF762FF6F
:1006080001342900B442F7DB300070BD01204042BC
:10061800704780239B014B60002070470120704782
:100628000020704710B503000C4A0D49521A0D49B5
:100638000968002907D00B490868C318934206D8EF
:10064800084A136010BD074907480860F3E701F03E
:1006580073FA0C23036001204042F3E70090002066
:100668000004000068080020E0090020704700002E
:1006780010B51948194B0360E1235B02436000235E
:100688008360C36003610C2242618361C3610362BA
:100698004362836201F082F9002811D100210E48DB
:1006A80001F0FCF900280ED100210B4801F01CFADA
:1006B80000280BD1084801F0D1F9002809D110BD54
:1006C800FFF710FFEAE7FFF70DFFEDE7FFF70AFF77
:1006D800F0E7FFF707FFF2E76C0800200038014059
:1006E80010B51948194B0360E1235B0243600023EE
:1006F8008360C36003610C2242618361C36103624A
:100708004362836201F04AF9002811D100210E48A2
:1007180001F0C4F900280ED100210B4801F0E4F9DA
:1007280000280BD1084801F099F9002809D110BD1B
:10073800FFF7D8FEEAE7FFF7D5FEEDE7FFF7D2FEB1
:10074800F0E7FFF7CFFEF2E7000900200044004081
:1007580010B590B00400142200210BA801F014FA7F
:100768001C22002104A801F00FFA23682D4A9342A5
:1007780004D02D4A93422BD010B010BD012304930E
:1007880004A800F0B7FD00281FD1284B196C802061
:10079800C001014319641A6C02400092009A596B17
:1007A8000422114359635B6B1A400192019B302369
:1007B8000B932E3B0C9300230D930E9301330F9351
:1007C8000BA91B4800F01CF9D6E7FFF78BFEDCE706
:1007D8000223049304A800F08DFD00281FD1134BB9
:1007E800D96B802080020143D963DA6B0240029200
:1007F800029A596B0122114359635B6B13400393AF
:10080800039B0C230B930A3B0C9300230D930E932D
:100818000F92A0200BA9C00500F0F2F8ACE7FFF793
:1008280061FEDCE70038014000440040001002404F
:10083800000800500D488546FFF718FF0C480D4981
:100848000D4A002302E0D458C4500433C4188C4223
:10085800F9D30A4A0A4C002301E013600432A24289
:10086800FBD301F06FF9FFF77BFEFEE70090002055
:10087800000000204C080020B03600084C0800207A
:10088800E0090020FEE7000010B50400114B1978BC
:10089800002901D1012010BDFA208000FFF72CFCAF
:1008A80001000D4B1868FFF727FC00F08DF80028B1
:1008B8000DD1032C01D90120EDE7013000222100E0
:1008C800404200F051F8054B1C600020E3E701208E
:1008D800E1E7C046040000200000002008000020D6
:1008E80010B5084A116880235B000B43136003208E
:1008F800FFF7CAFF041E02D00124200010BDFFF735
:1009080045FEFAE700200240034B1B78034A1168B2
:100918005B1813607047C04604000020940900204B
:10092800014B18687047C0469409002070B5040050
:10093800FFF7F6FF0500631C02D0044B1B78E41890
:10094800FFF7EEFF401BA042FAD370BD0400002061
:10095800034A136803490B40034313607047C046BA
:1009680000000140FFF9FFFF70B5002811DB830884
:10097800134EC0339B009D5903242040C000FF2222
:1009880014008440A54389010A4082402A439A51B1
:1009980070BD0F230340083B9B0806339B00094AA0
:1009A800944663445C6803221040C000FC32150082
:1009B8008540AC4389010A40824022435A60E7E7F8
:1009C80000E100E000ED00E0013880235B0498427C
:1009D8000FD2094A50600948036A1B021B0AC0214A
:1009E80009060B430362002393600733136000205A
:1009F80070470120FCE7C04610E000E000ED00E091
:100A0800F0B500235AE084685F000326BE40B44373
:100A18002600CC68BC4034438460446894434A68E8
:100A28001609012232409A402243426056E0DC080F
:100A38000834A400265805321A4092000F27974020
:100A4800BE430F6997403A00324322505AE00326CA
:100A580000E00026A64034003C43434E1832920082
:100A680094513468EA432600AE434F68FF0201D52B
:100A78002C4326003C4C26606468260016404F68CC
:100A8800BF0201D52C432600374C66608426A45942
:100A9800260016404F68BF0301D52C432600324C70
:100AA8008427E6518026A45922404E68F60301D5D2
:100AB8002A0022432C4D80242A5101330C6822003D
:100AC800DA404FD001229A40250015401442F4D054
:100AD80003244E683440013C012C94D903224C680D
:100AE8002240032A09D0C2685E000324B440A2430E
:100AF80014008A68B2402243C26003224C68224034
:100B0800022A94D004685E0003221700B740BC4351
:100B18004F683A40B24022430260C02292024C68B9
:100B28001442CAD09A0814001834A4000E4EA759CB
:100B380003241C40E4000F26A640B743A026F60570
:100B4800B04286D0094EB04208D0094EB04207D014
:100B5800084EB04200D17AE705267BE7012679E7FF
:100B6800022677E7F0BDC046001802400004005096
:100B780000080050000C0050002A01D08161704725
:100B88008162FCE710B5104A136810490B40034313
:100B9800136080239B00984201D0002010BD0C4BAD
:100BA8001B685800C01840000A49FFF7A5FA013031
:100BB800054B5B695B0503D5002803D00138F7E7CF
:100BC8000020EBE70320E9E700700040FFF9FFFF92
:100BD8000000002040420F0070B582B0041E00D112
:100BE80029E20368DB0739D5C14A916838230B40ED
:100BF800D16803220A40102B26D0082B26D0636820
:100C08008022520293427FD0A022D202934200D186
:100C180081E0B74B1A68B7490A401A601A68B649A2
:100C28000A401A606368002B00D180E0FFF778FE65
:100C38000500AF4B1B689B0310D4FFF771FE401BE8
:100C48006428F6D90320F7E1032AD6D1A84B1B68FC
:100C58009B0303D56368002B00D1EFE123689B0752
:100C680031D5A34A936838210B40D16803220A4042
:100C7800102B6AD0002B6BD19D4A1268520503D500
:100C8800E268002A00D1DBE1994842689B490A40A2
:100C9800616909020A434260002B0DD10368984933
:100CA8000B4021690B4303600368DB0A07221A40E3
:100CB800944BD340944A1360944B1868FFF7E4FDB3
:100CC800002800D0BEE123681B0700D481E0884BD0
:100CD8009A6838231340182B73D0A369002B00D1CE
:100CE800B4E0834A136E01210B431366FFF718FE25
:100CF80005007F4B1B6E9B076BD4FFF711FE401B53
:100D08000228F6D9032097E1794A116880235B020B
:100D18000B43136086E7764B19688022D2020A4398
:100D28001A601968802252020A431A607AE7FFF7AC
:100D3800F7FD05006E4B1B689B038FD5FFF7F0FD91
:100D4800401B6428F6D9032076E1022A92D193E762
:100D5800E368002B22D0664A136869490B40216971
:100D68000B431360116880235B000B431360FFF78C
:100D7800D7FD05005E4B1B685B0506D4FFF7D0FD69
:100D8800401B0228F6D9032056E159494B685B4AB3
:100D980013406269120213434B6094E7544A136884
:100DA8005B490B401360FFF7BBFD0500504B1B6808
:100DB8005B0588D5FFF7B4FD401B0228F6D9032050
:100DC8003AE14B4B1B6E9B0703D5A369002B00D15F
:100DD8003AE123685B0700D4A2E0454B9A683823C0
:100DE8001340202B45D0424BDB6BDB004AD4404AF2
:100DF800D16B802040050143D163D36B034001933D
:100E0800019B0125434B1B68DB053DD5A368012BDE
:100E18004ED0052B52D0364BDA6D01218A43DA6564
:100E2800DA6D03318A43DA65A368002B50D0FFF7E7
:100E380077FD06002E4BDB6D9B076FD4FFF770FD27
:100E4800801B354B9842F5D90320F5E0284A136EEC
:100E580001218B431366FFF763FD0500244B1B6ECE
:100E68009B07B6D5FFF75CFD401B0228F6D9032087
:100E7800E2E01F4BDB6D9B0752D5A368002B4FD1D7
:100E88000120D9E00025BDE7224A116880235B00D4
:100E98000B431360FFF744FD06001E4B1B68DB0580
:100EA800B4D4FFF73DFD801B0228F6D90320C3E028
:100EB8000F4AD36D01210B43D365B5E70C4BDA6DAF
:100EC80004210A43DA65DA6D03390A43DA65ABE7C8
:100ED800FFF726FD0600064BDB6D9B071ED5FFF7C7
:100EE8001FFD801B0C4B9842F5D90320A4E0C04697
:100EF80000100240FFFFFEFFFFFFFBFFFF80FFFF28
:100F0800FFC7FFFF0024F4000000002008000020B5
:100F1800FFFEFFFF0070004088130000012D1ED067
:100F2800E369002B00D191E04F4A916838220A40CA
:100F3800102A5ED0022B18D04B4A13684B490B403D
:100F48001360FFF7EDFC0400474B1B689B0149D574
:100F5800FFF7E6FC001B0228F6D903206CE0424AA2
:100F6800D36B43490B40D363DAE73F4A13683F49E1
:100F78000B401360FFF7D4FC05003B4B1B689B013B
:100F880006D5FFF7CDFC401B0228F6D9032053E015
:100F9800354AD36837491940236A606A0343A06A0F
:100FA80000020343E06A0343206B03430B43D3600F
:100FB800116880235B040B431360D16880235B05B1
:100FC8000B43D360FFF7ACFC0400274B1B689B0165
:100FD80006D4FFF7A5FC001B0228F6D903202BE056
:100FE800002029E0204AD36823490B40D360002021
:100FF80022E0012B2CD01C4BDA6803231340216A12
:101008008B4227D170231340616A8B4224D1FE2181
:10101800C9011140A36A1B0299421FD1F8239B03FF
:101028001340E16A8B421BD1520F5207236B9A423D
:1010380018D1002000E0012002B070BD0120FBE7BC
:101048000120F9E70120F7E70120F5E70020F3E7A1
:101058000120F1E70120EFE70120EDE70120EBE7B0
:101068000120E9E70120E7E700100240FFFFFFFE4B
:10107800FFFFFFEF8C80C11FFCFFFEEF10B52A4B6E
:101088009B6838221A4207D1274B1A68D20A0723CD
:1010980013402648D84010BD234B9A683823134084
:1010A800082B3BD0204B9A6838231340102B0DD0C7
:1010B8001D4B9A6838231340202B31D01A4B9A685D
:1010C80038231340182B26D00020E4E7164AD168AD
:1010D8000D3B0B40D2681209072111400131032B47
:1010E8000FD01248FFF708F80F4BDA68120A7F236F
:1010F800134058430C4BD968490F0131FEF7FCFFE8
:10110800C9E70B48FEF7F8FF074BDA68120A7F2396
:1011180013405843EEE7FA20C001BCE70448BAE799
:1011280080200002B7E7C046001002400024F40007
:10113800006CDC0270B504000D00002800D1AAE0A4
:10114800574B1A68072313408B4221D323689A0709
:101158000ED55B0705D5534A9168E023DB010B43A5
:101168009360504A936850490B40A1680B439360C1
:101178002368DB0754D56368012B20D0022B3BD0B2
:10118800002B3FD1474A126852051CD401206AE05F
:10119800434A136807218B432B431360FFF7C0FBB7
:1011A80006003F4B1A6807231340AB42CED0FFF727
:1011B800B7FB801B3D4A9042F3D9032053E0394ADC
:1011C8001268920369D537498A6807208243134316
:1011D8008B60FFF7A5FB0600324B9B6838221A404C
:1011E8006368DB009A421BD0FFF79AFB801B2F4BEA
:1011F8009842F1D9032036E02A4A12689201E2D4D3
:10120800012030E0032B05D0264AD26D9207DAD4AC
:10121800012028E0234A126E9207D4D4012022E04C
:101228001F4B1A6807231340AB421DD823685B077E
:1012380006D51C4A93681E490B40E1680B4393602E
:10124800FFF71CFF174B9A68120A0F2313409B00E5
:10125800184A9A581F231340D840174B1860174B49
:101268001868FFF711FB70BD0D4A136807218B43FF
:101278002B431360FFF754FB0600094B1A6807233A
:101288001340AB42D2D0FFF74BFB801B074B984271
:10129800F3D90320E7E70120E5E70120E3E7C046AB
:1012A8000020024000100240FFF0FFFF88130000FA
:1012B800FF8FFFFF14360008000000200800002000
:1012C800014B18687047C0460000002010B5FFF7B2
:1012D800F7FF064B9A68120B072313409B00044A3A
:1012E8009A581F231340D84010BDC0460010024032
:1012F80054360008F0B583B0040003689B0362D538
:10130800584BDB6BDB001ED4564AD16B802040055E
:101318000143D163D36B03400193019B0126524AD9
:10132800116880235B000B431360FFF7F9FA05008F
:101338004D4B1B68DB0508D4FFF7F2FA401B022867
:10134800F6D9032502E00026E9E70025002D23D180
:10135800444BD96DC02292000B001340114210D0AB
:10136800A2699A420DD03F4AD36D40490B40D06DD7
:10137800802149020143D165D16D3D480140D165C5
:10138800D365DB0710D4002D06D1364AD36D374913
:101398000B40A1690B43D365012E15D1314AD36B9C
:1013A80034490B40D3630FE0FFF7BAFA07002D4B1F
:1013B800DB6D9B07E7D4FFF7B3FAC01B2E4B9842AF
:1013C800F5D90325DFE700252368DB0706D5254A7D
:1013D800536D03218B4361680B43536523689B0757
:1013E80006D5204A536D0C218B43A1680B435365E6
:1013F80023689B0606D51B4A536D20490B40E168BC
:101408000B43536523685B040BD5164A536D9B0049
:101418009B0861690B4353658023DB0562699A4227
:1014280011D023681B050BD50E4A536D14490B4088
:1014380021690B43536522698023DB019A4209D055
:10144800280003B0F0BD074AD16880235B020B4334
:10145800D360E6E7034AD16880235B020B43D3607D
:10146800EEE7C0460010024000700040FFFCFFFF9E
:10147800FFFFFEFFFFFFFFEF88130000FFCFFFFF16
:10148800FF3FFFFF10B504008368026913434269F8
:101498001343C269134301680A686B480240134347
:1014A8000B602268536869490B40E1680B4353603D
:1014B800226AA3691A4321688B686548034013436D
:1014C8008B602268D36A0F218B43616A0B43D36216
:1014D8002368604A93420AD05F4A93423ED05F4AEB
:1014E80093425CD05E4A934249D010230BE05D4B97
:1014F8005A6D03231340022B43D02BD8002B42D024
:10150800012B42D10333E06980221202904248D075
:10151800042B00D191E07AD8002B00D186E0022B71
:1015280073D15148636A5B00504A995AFEF7E4FD4B
:1015380063685B08C0186168FEF7DEFD0200103AB8
:101548004B4B9A4200D97DE023680004000CD86018
:10155800002062E0032B1AD10533D4E7414B5A6DC2
:101568000C231340082B14D005D8002B13D0042BC0
:10157800C9D01023C7E70C2B0FD1043BC3E70023C6
:10158800C1E70223BFE70023BDE71023BBE7102311
:10159800B9E70223B7E70023B5E71023B3E7002331
:1015A800B1E7042B2ED023D8002B25D0022B1DD138
:1015B8002D48636A5B002D4A995AFEF79DFD40004D
:1015C80063685B08C0186168FEF796FD0200103A70
:1015D800274B9A4234D882B20F239A434008083BDB
:1015E800184010432368D860002016E0012014E05A
:1015F800082BDED0012010E0FFF768FE0028D8D1C4
:1016080000200AE0FFF73AFDF8E7012005E0082B83
:1016180002D18020000285E7012001236A22A3521B
:10162800023AA35200236367A36710BDFFF74EFE7B
:10163800002800D076E70020EFE7FFF71FFDF7E767
:101648000120EAE70120E8E7F369FFCFFFCFFFFFBA
:10165800FFF4FF11003801400044004000480040FA
:10166800004C0040001002400024F40074360008CA
:10167800EFFF0000836ADB0706D5026853682C4930
:101688000B40C16A0B435360836A9B0706D5026807
:10169800536828490B40016B0B435360836A5B070F
:1016A80006D50268536824490B40416B0B435360CD
:1016B800836A1B0706D50268536820490B40816B73
:1016C8000B435360836ADB0606D5026893681C499E
:1016D8000B40C16B0B439360836A9B0606D5026877
:1016E800936818490B40016C0B439360836A5B064F
:1016F8000BD50268536814490B40416C0B43536087
:1017080080235B03426C9A420AD0836A1B0606D583
:10171800026853680D490B40C16C0B435360704716
:10172800026853680A490B40816C0B435360ECE72D
:10173800FFFFFDFFFFFFFEFFFFFFFBFFFF7FFFFF38
:10174800FFEFFFFFFFDFFFFFFFFFEFFFFFFFF7FFE9
:10175800FFFF9FFFF8B5CE46474680B506000D004F
:1017680017009946089B98463368DC692C40641B2F
:1017780063425C41BC4257D143460133F4D0FFF782
:10178800CFF84B46C01A40452ED84346002B2BD0E5
:1017980033681A685207E7D5DA691205E4D580225A
:1017A80012011A62EFF31080012282F31088316867
:1017B8000B68204C23400B6080F31088EFF31080F7
:1017C80082F3108831688B6893438B6080F31088AC
:1017D80020238732B3500432B3500432B3506433F9
:1017E8000022F254032020E0EFF31080012282F35C
:1017F800108831680B680F4C23400B6080F3108809
:10180800EFF3108082F3108831688B6893438B6004
:1018180080F3108820238732B3500432B3506433E6
:101828000022F254032000E00020C0BCB946B046B4
:10183800F8BDC0465FFEFFFFF0B5C64600B582B0F2
:1018480004000D0090461E008823C358202B5CD14D
:1018580000295FD0002A5FD080235B0182689A420A
:1018680004D10369002B01D1CB0757D49023002260
:10187800E250083B2132E250FFF752F807005423A8
:101888004246E2520233E25280235B01A2689A4246
:1018980002D00023984613E02369002B25D00023AB
:1018A80098460DE043461B882268DB05DB0D9362F2
:1018B80002239C46E0445623E25A013A92B2E2528D
:1018C8005623E35A9BB2002B12D000963B0000220D
:1018D80080212000FFF73EFF002821D1002DE1D014
:1018E8002A7823689A620135E5E7A8460025E7E7E4
:1018F80000963B00002240212000FFF72BFF002824
:1019080010D188232022E25000E0022002B080BCDF
:10191800B846F0BD0120F9E70120F7E70120F5E717
:101928000320F3E70320F1E730B583B004009023E8
:101938000022C250FEF7F4FF050022681268130760
:1019480010D423681B685B0719D420238822A3506E
:101958000432A3500023E3662367083AA354002007
:1019680003B030BD80210C4B009303000022890393
:101978002000FFF7EFFE0028E3D00320F0E78021E6
:10198800054B00932B000022C9032000FFF7E2FE5D
:101998000028DAD00320E3E7FFFFFF0110B5041E9B
:1019A80030D08823C358002B22D088232422E25029
:1019B8002268136801218B4313602000FFF762FD42
:1019C800012814D0A36A002B18D1226853680E4945
:1019D8000B405360226893682A218B4393602268E6
:1019E800136829390B4313602000FFF79DFF10BDD2
:1019F80084330022C254FEF7ABFED6E72000FFF77F
:101A080039FEE2E70120F2E7FFB7FFFFF8B504006F
:101A1800436E002B05D101336A228352023A835266
:101A2800F8BD026895686D0E07231D409268520F35
:101A38001340084FF85CC000074EF15CFEF7E6FB68
:101A48006A23E052785DC000715DFEF7DFFB682312
:101A5800E052E5E7943600088C36000870B5842318
:101A6800C35C012B15D08424012606558825242320
:101A78004351026813681168B1431160064A134064
:101A88000022426601680B60202343510255002062
:101A980070BD0220FCE7C046FFFFFFDFF8B5040079
:101AA8000A008423C35C012B1BD0842501206055C8
:101AB80088262423A35123681F6819688143196065
:101AC80020688368DB00D908114381602000FFF794
:101AD8009DFF23681F602023A35100236355002026
:101AE800F8BD0220FCE70000F8B504000B008422D2
:101AF800825C012A1BD08425012060558826242277
:101B0800A2512268176811688143116022689168A0
:101B180008480140194391602000FFF777FF2368C8
:101B28001F602023A351002363550020F8BD022025
:101B3800FCE7C046FFFFFFF1014B18687047C0463D
:101B48000C00002070B50C4D0C4E761BB61005D05D
:101B5800002408CD01349847A642FAD101F044FD8B
:101B6800074D084E761BB61005D0002408CD013469
:101B78009847A642FAD170BDA4360008A4360008DA
:101B8800A4360008AC360008F0B50500830749D034
:101B9800541E002A45D003000326CAB202E00135CC
:101BA800013C3ED301332A703342F8D1032C30D99B
:101BB800FF220A40150215432A0415430F2C34D975
:101BC8002700103F3F093E01B4461E001A00103698
:101BD8006644156055609560D5601032B242F8D100
:101BE80001373F01DB190F270C22274022403C0018
:101BF800002A0ED03E1FB608B400A4461A001C1DC9
:101C0800644420C2A242FCD103240136B6009B19C9
:101C18003C40002C05D0C9B21C19197001339C42F4
:101C2800FBD1F0BD03001400C0E72700E2E7C0467F
:101C380030B5050089B008000C0000F053F804AB7B
:101C4800214A01930223069201220293AB6B05906D
:101C5800013004940792AC680390002B2BD0636E7C
:101C6800DB0724D4A2890C23E15E93051CD58023CD
:101C78009B011A4205D10B43626EA381134B13409B
:101C880063662800210001AA00F02AF9431E984142
:101C98000A25636E40420543DB0702D4A3899B05EE
:101CA8000DD5280009B030BDA06D00F0BBFA0C239B
:101CB800E15EA289DBE7280000F05EF8CFE7A06DBF
:101CC80000F0B2FAEDE7C046A0360008FFDFFFFFDC
:101CD80010B5034B01001868FFF7AAFF10BDC046F6
:101CE8000C00002010B583070AD00300032102E08E
:101CF80001330B4205D01A78002AF9D1181A10BD01
:101D0800030019680C4A0D4C8A188A4322420FD1E5
:101D18005968094A04338A188A43224208D1596803
:101D2800054A04338A188A432242F1D000E001337D
:101D38001A78002AFBD1E1E7FFFEFEFE8080808052
:101D4800034B10B5002B02D0024800F005F810BD77
:101D580000000000C11E000810B501000023002289
:101D6800002001F0A5F810BD10B5024900F032FAC4
:101D780010BDC046892F0008F8B5DE4657464E46C6
:101D88004546E0B506003C4F380000F04BFAB46B0E
:101D9800002C68D1394B0322F363B8239B00F4501D
:101DA80004337568F2500833F218043BF2502800E7
:101DB800042308220021EB606C662C606C60AC6028
:101DC8002C616C61AC615C30FFF7DEFE28002C4BA7
:101DD800ED619B462B622B4B58309A466B622A4B1F
:101DE8009946AB62294BEB62984600F017FAB56842
:101DF800274B280008220021EB606C662C606C6081
:101E0800AC602C616C61AC615C30FFF7BDFE5B4679
:101E18002B6253466B624B462800AB624346ED612A
:101E2800EB62583000F0FAF9F5681A4B28000822DE
:101E38000021EB606C662C606C60AC602C616C619E
:101E4800AC615C30FFF7A0FE5B462B6253466B62C9
:101E58004B462800AB624346ED61EB62583000F018
:101E6800DDF90123B363380000F0DEF9F0BCBB46AE
:101E7800B246A946A046F8BDA4090020711D000875
:101E8800152D00083D2D00087D2D0008A92D0008FE
:101E9800090001001200020010B5024800F0C2F962
:101EA80010BDC046A009002010B5024800F0BCF9DA
:101EB80010BDC046A009002070B5074D074C641B33
:101EC800A41005D0013CA300EB589847002CF9D189
:101ED80001F090FB70BDC046AC360008B036000873
:101EE800F0B5DE46454657464E46E0B5936883460C
:101EF8000C00904683B0002B23D08B891A0728D575
:101F08000A69002A25D0424616689A072DD5002767
:101F1800AC4B00259946BA46002D58D02B004D45AC
:101F280000D9A84B52465846E169676AB847002865
:101F380058DD43469B6882442D1A181A4346986018
:101F4800EAD1002003B0F0BCBB46B246A946A04681
:101F5800F0BD2100584600F03DFF002800D02DE1DB
:101F68004246A38916689A07D1D4DA0742D40022D8
:101F780000279146002F25D080229200A5681342A1
:101F880000D180E0AA46BD4200D9AFE09022D2003D
:101F9800134200D0BBE020685246494600F094FC4A
:101FA800A3685D1BA5603D00002723685344236098
:101FB80043469B68A9445D1B43469D60C1D0A389E5
:101FC800002FD9D13268776891460836D2E733684E
:101FD80075689A4608369FE72100019801F0DEF8F7
:101FE80000282FD00C22A35E402201201343A38196
:101FF8004042A7E700230022B14600271E005B46A7
:10200800002092460193002F27D000282FD03300BC
:10201800BB469F4200D99B4620682269636990426B
:1020280004D9A2689D18AB4500DD9EE05B4561DCE4
:10203800656A5246E1690198A847051ED2DD01206C
:10204800761BC9D043469B68AA447F1B5D1B434649
:102058009D6000D175E7002FD7D14B461B689A4683
:102068004B465F6808239C46E144002FF5D03A00B0
:102078000A21504600F09CFB002800D195E0534609
:102088000130C61AC3E720682369984216D86369E5
:102098009A46BB4212D84C4B38009F4200D94B4855
:1020A8005146FEF7B3F85346656A43434A465846D5
:1020B800E169A847051E95DD7F1B79E7BD4200D978
:1020C8003D002A00494600F0FFFBA36822685B1B1D
:1020D8005219A3602260002BEED12100584601F06E
:1020E8005DF8002800D07DE77F1B61E73D00BA4618
:1020F800206851E75A46514600F0E6FB5A46A36865
:102108005D469B1AA36023685B44236097E7606978
:1021180022682169551A42001218D00F8218681CCB
:102128005210C01992460195904201D98246020088
:102138005B0529D51100584600F078F8051E37D000
:10214800019A216900F06EFBA389214A134080227D
:102158001343A3815246019B2561E818D31A3D0019
:10216800BA4620606261A36016E751462A0000F073
:10217800ABFB236821005B190198236001F00EF87E
:10218800002800D15BE72DE7584600F003FC051E48
:10219800E0D12169584601F085F880225946A38983
:1021A8009343743A1BB20A601EE77B1C1E002FE79C
:1021B8000C235A4613600C22A35E15E70120404207
:1021C800C0E6C04600FCFF7FFEFFFF7FFFFFFF7FEA
:1021D8007FFBFFFFF8B54746CE4680B5B827804657
:1021E80089460026BF0047447B68BC685D1E0DD445
:1021F800A389012B07D90E22A35E013303D0210046
:102208004046C84706436834013DF1D23F68002F75
:10221800EAD13000C0BCB946B046F8BD7047C046E8
:102228007047C0467047C0467047C046F0B54E4636
:102238004546DE465746E0B50D000B35060083B02F
:10224800162D22D8102900D9B2E000F093FB1025F2
:1022580018230220CC4FFB181A005C68083A9442F5
:1022680000D1B5E0032362689A431300E268A168CD
:10227800CA6091600122E318596830000A435A6025
:1022880000F080FB2000083095E007239D4300D52F
:102298008EE0A94200D98BE000F06CFBFC235B00C8
:1022A8009D4200D2A7E1680A00D18BE0042800D93A
:1022B8007AE138239846A80980443930C100B24FE2
:1022C80079184C680839A1420ED003239C4604E0D3
:1022D800002ACBDAE468A14206D0624663689343D9
:1022E8005A1B0F2AF4DD40463A003C6908329442F2
:1022F80000D178E003236168994389460B00491BA4
:102308000F2900DD7BE17A613A610029B2DA802287
:102318009200914500D30FE15909DA0801238B4057
:10232800D2007968D2190B4391687B60E260A160A2
:102338009460CC60012182109140994259D80B4297
:1023480005D103229043490004300B42FBD00323FC
:102358009846C3009946B944CC4682466346DC6831
:10236800A44507D12CE1002A00DB35E1E468A44547
:1023780000D125E14246636893435A1B0F2AF2DDD8
:1023880001208046611905436560A068E568083743
:10239800C560A86040461043F960B9604860CF60E6
:1023A80030008F60E25000F0EDFA2000083002E0C3
:1023B8000C230020336003B0F0BCBB46B246A946EC
:1023C800A046F0BD80213F2340209846890076E74B
:1023D800DC680230A34200D044E73A003C69083286
:1023E800944200D086E701217B688210914099428F
:1023F800A5D90323BC6862689A439146954203D8DD
:10240800531B0F2B00DD89E023004B445F4A0193E7
:102418005F4B93461B681268EB18013200D13DE10F
:102428005C4A944663441B0B1B03009330000099DD
:1024380000F05AFC03008046013300D1FAE0019B0A
:10244800834200D9F4E0544B00981A009A46126867
:1024580003009446514663440B6001991A004145B4
:1024680000D151E15B461B68013300D156E1434678
:1024780001995B1A9A1853461A6007234246414647
:102488001A400192194200D112E108239846881A8D
:10249800424B0099804441449B1A5B1A1B051B0D53
:1024A8000091300019009B4600F01EFC431C00D12F
:1024B80050E14346C01A03005B440093534652461A
:1024C8001B6801215B44136042464046BA60009A8B
:1024D8000A434260BC4200D124E14A460F2A00D890
:1024E80022E107200C3A824360680140052011432D
:1024F8006160A118486088600F2A00D935E142461A
:102508004446526826490868984200D20B6025491B
:102518000868984200D38FE00B608DE00122290003
:1025280013431143651961603000BD606B6000F0B2
:1025380029FA200008303EE75A0A042A72D9142AD8
:1025480000D9C5E011005C325B31D20008235B4240
:102558009C46BA18944463469A680323984694455F
:1025680000D19EE0434651689943494502D9926893
:102578009445F7D1D3689C467B686146A260E160C8
:102588008C60D460D6E6C0463C0400204408002095
:10259800D80900200F100000A8090020081000002A
:1025A800D0090020D4090020142852D9542800D971
:1025B80096E06E239846280B80446F30C1007EE673
:1025C80008239B46073BDC449B46DA444346524675
:1025D800134200D0C2E64CE00122E31859683000EB
:1025E8000A435A60E368A268D3609A6000F0CAF9A7
:1025F80020000830DFE62B00E80808332AE601232C
:1026080060191D43656078613861C26082601A0094
:102618004B460A4342603000E15000F0B3F9200015
:102628000830C8E69A09110039323831D2008DE7EE
:10263800BC4260D0BC68626803239A43531B95422E
:1026480002D80F2B00DD69E7300000F09BF900206D
:10265800B1E65B23984680445C30C1002FE608232E
:102668005B429C46E1444B469B6801384B4500D091
:1026780098E043460342F2D17B688B437B60490074
:10268800994200D9B5E6002904D1B2E6042294465D
:102698004900E2440B42F9D050465AE61033009301
:1026A800C4E68910023B8B4079680B437B6064E782
:1026B800009B300043445B421B051B0D19009B46E1
:1026C80000F012FB431C00D0F3E600239B46F5E61E
:1026D800542A2BD81A0B11006F326E31D20035E70D
:1026E800AA235B0098422BD8DD3B9846E80B804430
:1026F8007830C100E3E52C4B009A9A461B689C464B
:10270800534662441A60ADE6090500D0AAE6020005
:10271800BC684A4401310A436260F3E65B464246BC
:102728001A60AAE64446EDE641608DE7AA21490011
:102738008A4224D8DA0B110078327731D20005E7C3
:102748001A4B984224D87C239846A80C80447D30A4
:10275800C100B4E5009A019B94464246083B634495
:102768009B1A009300239B46A8E6210030000831FD
:1027780000F098FD5346BC681B686268C2E60B49C6
:102788008A420BD89A0C11007D327C31D200DDE6EA
:10279800FE217E237F209846890090E5FE227E2137
:1027A8009200D3E67B686AE7A80900205405000078
:1027B80070B5CCB283070DD0531E002A0FD0032565
:1027C80004E00130284206D0013B08D30278A24237
:1027D800F7D170BD1300032B0CD8002B01D10020BA
:1027E800F7E7C31802E001308342F8D00278A2422A
:1027F800F9D1EEE7FF2529400D0229430D04074EC4
:102808000D43026806496A40511891433142E8D1A4
:10281800043B0430032BF4D8DFE7C0468080808077
:10282800FFFEFEFEF0B5C64600B50F2A41D90327C4
:102838000D003E0005430C0003002E402F423DD101
:102848001500103D2D09A8462D01AC468444276883
:102858001D001F6067685F60A7689F60E7681034A5
:10286800DF6010336545F2D145460F230C2401354E
:102878002D01491913404519144222D08C59AC51E5
:1028880004369C1B032CF9D8043B9B0801339B009E
:10289800ED18C91803231A40561E002A06D0002333
:1028A800CC5C1A00EC5401339642F9D180BCB8468E
:1028B800F0BD0500561E002AF1D1F7E70500561EA7
:1028C800EDE71A00F6E7C046F0B588420AD98B183A
:1028D800984207D2531E002A03D0CA5CC254013B57
:1028E800FBD2F0BD0F2A0BD80500561E002AF8D0DF
:1028F8000023CC5C1A00EC5401339642F9D1F0E77E
:1029080003270D003E0005430C0003002E402F4214
:102918002BD11500103D2D09AC462F013F18256815
:102928001D6065685D60A5689D60E5681034DD60C0
:102938001D001033BD42F2D165460F230C2401352A
:102948002D01491913404519144211D08C59AC5125
:1029580004369C1B032CF9D8043B9B0801339B00CD
:10296800ED18C91803231A40BFE70500561EBFE734
:102978001A00BAE710B50248FFF754FC10BDC0466C
:102988009C09002010B50248FFF74EFC10BDC04658
:102998009C090020F0B557464546DE464E46E0B550
:1029A8000C000700904683B0002900D1A8E04546F6
:1029B8000B35FFF7DFFF162D70D810251023A8451B
:1029C80070D82600083E71680322080090438146AB
:1029D8000096984200DB77E0C24A30189346926826
:1029E800824200D1CAE042680190009201229246D8
:1029F8005046009A8243019894468346DC446246D6
:102A080050465268024200D071E00320009ACB463B
:102A180082439446E3449B4550DA52460A4211D118
:102A280003213268B21A924652688A4361465118A5
:102A380049448B46994200DB78E04A4493469A42DF
:102A480000DB78E041463800FFF7F0FB80460028BD
:102A580020D07368B446009301230099020099437B
:102A68000B00083A6344934200D1F7E04A46043A1F
:102A7800242A00D9F7E003002100132A00D9C8E06E
:102A88000A681A604A685A608A689A6021003800A1
:102A980000F008FC3800FFF775FF07E007239D43A7
:102AA8002B1E8CDA0C233B6000239846404603B06B
:102AB800F0BCBB46B246A946A046F0BDD946019A2D
:102AC800D3689268D3609A604B465B1B0F2B1CD867
:102AD80001214A4673680B40134373604E44736880
:102AE800194371603800FFF74DFFA046DEE7084242
:102AF800A8D103213268B21A924652688A439CE7E9
:102B08001100FFF793FB8046D0E701207268711926
:102B180002400343154375604B604E4473680831A7
:102B280018437060380000F0BDFBDBE7019AD368FA
:102B38009268D3609A6053465246DB68926856465C
:102B4800D3609A604A46043A0836242A6BD8330080
:102B5800132A09D95346216899606168D9601B2AEC
:102B680000D98EE0083410332268D9461A606268AA
:102B78005A60A26834009A605646A5E75068032256
:102B880090430D3282469446CA44AC44E24552DA38
:102B9800CA0700D556E73168721A0321924652686F
:102BA8008A4310180100494400918C4500DD44E730
:102BB80053465246DB689268D3609A6008234A46B7
:102BC8005344043A9846242A75D8132A08D95346F8
:102BD800216899606168D9601B2A71D8083410335C
:102BE80022681A6062685A60A2689A605346591946
:102BF8005B469960009B38005A1B01231A434A60C0
:102C08005246526813401D4353465D60FFF7BAFEB3
:102C18004CE721680160616841601B2A27D82100C0
:102C2800083308312CE7210030003400FFF74CFE50
:102C3800D946564648E75B460098A0464119996030
:102C480053465A1B01231A434A6041680B401D43EF
:102C5800456038000091FFF795FE27E703225B687F
:102C68009343994430E72100FFF72EFE0EE7A16851
:102C78008160E168C160242A0CD021001033103132
:102C8800FEE6A1681961E1685961242A0BD0103465
:102C9800183369E72269210002610200606918316E
:102CA80018335061ECE622699A6152466169203313
:102CB800D161183458E721001800FFF705FE95E7A1
:102CC800A1681961E1685961242A02D010341833C7
:102CD80086E722699A61524661692033D1611834C6
:102CE8007EE7C0463C040020002370B5064D040072
:102CF80008002B60FDF796FC431C00D070BD2B68C4
:102D0800002BFBD02360F9E7DC09002070B50C002C
:102D18000E25495F00F02EFC002803DB236D1B18ED
:102D2800236570BDA389024A1340A381F9E7C04611
:102D3800FFEFFFFFF8B50C001F000C23C95E05006C
:102D48001600CB050AD40A4B320019402800A1818D
:102D58000E23E15E3B0000F029F8F8BD0E23E15E8A
:102D68000022022300F080FB0C23E15EEBE7C04663
:102D7800FFEFFFFF70B50C000E25495F00F074FBF4
:102D8800431C06D08023A2895B011343A3812065DD
:102D980070BDA389014A1340A381F9E7FFEFFFFF44
:102DA80010B50E23C95E00F0D9F810BD70B5040047
:102DB800080011001A000023054D2B60FDF718FCD0
:102DC800431C00D070BD2B68002BFBD02360F9E7B3
:102DD800DC090020354B70B5050018680C00002888
:102DE80002D0836B002B21D00C23E25EA389190744
:102DF80023D5216900292BD0D80708D50020A06049
:102E080060694042A0610020002908D070BD002000
:102E18009D0700D46069A06000200029F6D11B0638
:102E2800F4D540231A43A2810138EFE7FEF7A4FF47
:102E38000C23E25EA3891907DBD4D9062DD55B07DD
:102E480016D4216908231A43A28193B20029D3D149
:102E5800A02080268000B6001840B042CCD02100C7
:102E6800280000F015FB0C23E25E2169A389C3E763
:102E7800216B00290AD023004033994204D028004E
:102E880000F010FA0C23E25E0023236324239A4304
:102E98000023216963602160D4E709232B60402364
:102EA80001201A43A2814042B0E7C0460C0000202E
:102EB800F0B5D6464F464646C0B5264F82B0060006
:102EC8003868924698468946FFF7ACF9224B1B684A
:102ED8000193A423019A5B00D558002D2ED06C686D
:102EE8001F2C30DC002E0FD1631C6B604B46023464
:102EF800A40038686351FFF797F9002002B0E0BCDE
:102F0800BA46B146A846F0BD882251462800A3001B
:102F1800EB189950873AA2408930FF300168114375
:102F280001608421404649005850022EDCD12B0014
:102F38008D33FF3319680A431A60D5E715004D35FC
:102F4800FF35D550CBE73868FFF76EF901204042CE
:102F5800D4E7C046380400209C360008002370B52A
:102F6800064D040008002B60FDF750FB431C00D001
:102F780070BD2B68002BFBD02360F9E7DC0900202B
:102F8800F8B506000C1E4DD0002802D0836B002B2C
:102F98004AD00127636E3B4235D00C22A35E002B3A
:102FA80040D02100300000F059F8E36A0500002BFA
:102FB80004D03000E169984700283CDBA3891B0650
:102FC8003ED4216B002908D023004033994202D017
:102FD800300000F067F900232363616C002904D0F6
:102FE800300000F05FF900236364FEF755FF00230B
:102FF800A381636EDB072CD5A06DFFF711F9FEF7EF
:1030080053FF2800F8BDA3899B05CAD4A06DFFF71C
:1030180009F90C22A35E002BC3D1636E1D003D404D
:103028003B4212D00025ECE70127FEF7A5FE636EB0
:103038003B42B2D1E7E70125A3896D421B06C0D503
:103048003000216900F02EF9BBE7A06DFFF7ECF81E
:10305800D7E7A06DFFF7E8F8CEE7C046F0B5C6465B
:103068000C0000B5A28980460C23C95E13074CD416
:10307800802362681B010B43A381002A66DDA66AD0
:10308800002E3ED042464146156800220A609AB298
:10309800DB0460D4012300224046E169B047431CA9
:1030A80068D0A289A66A530706D56368C01A236B3D
:1030B800002B01D0E36BC01A00230200E1694046EF
:1030C800B047431C49D143461B68002B45D01D2BF4
:1030D80001D0162B57D1A3892F4A1340A38100236F
:1030E8006360236923604346216B1D60002908D073
:1030F80023004033994202D0404600F0D3F8002321
:103108002363002080BCB846F0BD2669002EF8D0A5
:10311800236826609D1B0023920700D16369A36082
:10312800002D04DCEDE736182D1A002DE9DD2B0003
:1031380032004046E169676AB8470028F3DC40225C
:103148000120A38940421343A381DBE7E26B002AF5
:1031580000DD94E7D5E7206DA5E7A3890E4A134063
:103168000022626022691BB2A3812260DB04BAD507
:103178002065B8E743461B68002B00D191E71D2B5B
:1031880006D0162B04D04022A3891343A381B9E7A4
:10319800434600201D60B5E7FFF7FFFF70B5050047
:1031A8000C00002802D0836B002B15D00C22A35EE4
:1031B800002B17D0626ED20701D49B0514D52800C6
:1031C8002100FFF74BFF636E0500DB0702D4A389DC
:1031D8009B0515D5280070BDFEF7CEFD0C22A35E19
:1031E800002BE7D10025F5E7A06DFFF71BF82800B5
:1031F8002100FFF733FF636E0500DB07EAD4E6E73B
:10320800A06DFFF711F8E5E7F8B50C000500FFF72A
:10321800B1FB204FBB685E6803239E431E4B341BE3
:103228009C466444240B013C113324039C4207DB75
:1032380000212800FFF758FDBB689B19984204D06D
:103248002800FFF79FFB0020F8BD28006142FFF728
:103258004BFD431C0DD00122BB68361B16435E6034
:103268000E4B28001A68141B1C60FFF78BFB01200B
:10327800EAE700212800FFF737FDBA68831A0F2B09
:10328800DEDD07490968401A0449086001210B433B
:103298005360D5E73C040020EF0F0000A809002088
:1032A80044080020F0B5C64605000C0000B500290A
:1032B8004FD0FFF75FFB210008394C680126220038
:1032C8000320B2438F187B6883436248984683681B
:1032D800BB426AD043467B6026421ED108239C46E7
:1032E8000C688444091B12198C6864454FD0CB685C
:1032F800E3609C604346FC186468344211D1BB68A3
:10330800554C4244A34200D17EE0FC68DC60A360D7
:10331800012313434B608A5006E0FC18646834426A
:10332800EDD016434E603A6080239B009A4213D238
:103338005409D3080122A2404468DB0022434260BA
:1033480018188368C8608B608160D9602800FFF70F
:1033580019FB80BCB846F0BD530A042B3ED894092B
:10336800260039343836E40004192368083C03275A
:103378009C4242D05868B843904202D99B689C420C
:10338800F8D1DC68CC608B60A160D960DEE7434689
:10339800F8184068304257D1FB68B8684244164371
:1033A800C36098604E608A50D0E7130043442642B9
:1033B80006D10A68891A8C689B18CA68E26094600A
:1033C80001221A434A60254A816012689A42BDD890
:1033D800234B28001968FFF717FFB7E7142B07D905
:1033E800542B1AD8140B26006F346E36E400BBE752
:1033F8001E005C335B36DC00B6E70122B610B24033
:10340800466832434260BDE7D9609960CB608B6003
:10341800012313434B608A5098E7AA246400A3420F
:1034280005D8D40B260078347736E4009CE70D4C99
:10343800A34205D8940C26007D347C36E40093E73B
:10344800FE247E26A4008FE7330013434B603A60C6
:103458007CE7C0463C0400204404002048080020C3
:10346800D80900205405000070B5040008001100B8
:103478001A000023054D2B60FDF7D2F8431C00D03D
:1034880070BD2B68002BFBD02360F9E7DC09002016
:10349800F0B5C64600B58B8905000C0096B09A07B2
:1034A80009D523004333236023610123636116B0E8
:1034B80080BCB846F0BD0E22895E002929DB6A4629
:1034C80000F06CF8002823DBF023019F1B021F404B
:1034D800264B80269C4667447B425F418023DB0065
:1034E8009846360141462800FEF7A0FE00281CD069
:1034F80080221F4BEB63A3892060134342461BB213
:10350800A38120616261002F1ED13343A381CEE7DE
:10351800A38900271B0612D5402398462800414658
:103528000026FEF783FE0028E2D10C22A35E9A054E
:10353800BDD40322934302221343A381B1E780231E
:10354800DB0098460026CDE728000E23E15E00F058
:1035580039F8002802D10C22A35ED6E70322A389FA
:103568009343012213431BB2CFE7C04600E0FFFF9D
:10357800711D000870B50400080011001A0000232E
:10358800054D2B60FDF726F8431C00D070BD2B6855
:10359800002BFBD02360F9E7DC090020002370B57D
:1035A800074D0400080011002B60FDF732F8431C9A
:1035B80000D070BD2B68002BFBD02360F9E7C04614
:1035C800DC090020002370B5064D040008002B60BC
:1035D800FDF724F8431C00D070BD2B68002BFBD0EE
:1035E8002360F9E7DC090020F8B5C046F8BC08BC40
:1035F8009E467047F8B5C046F8BC08BC9E46704762
:1036080048656C6C6F20576F726C64000000000096
:1036180000000000000000000000000000000000A2
:103628000000000000000000000000000100000091
:103638000200000003000000040000000600000073
:10364800070000000800000009000000000000005A
:103658000000000000000000000000000100000061
:103668000200000003000000040000000100020046
:103678000400060008000A000C00100020004000AA
:10368800800000010804020408010101010101038E
:0C36980007010000100000200A000000E4
:0836A400491D0008E1000008C7
:0436AC00B900000859
:1036B0000024F400010000000400000010000020BD
:1036C00000000000FC02002064030020CC03002066
:1036D00000000000000000000000000000000000EA
:1036E00000000000000000000000000000000000DA
:1036F00000000000000000000000000000000000CA
:1037000000000000000000000000000000000000B9
:1037100000000000000000000000000000000000A9
:103720000000000000000000000000000000000099
:103730000000000000000000000000000000000089
:103740000000000000000000000000000000000079
:103750000000000000000000000000000000000069
:103760000000000000000000010000000000000058
:103770000E33CDAB34126DE6ECDE05000B0000001D
:103780000000000000000000000000000000000039
:103790000000000000000000000000000000000029
:1037A0000000000000000000000000000000000019
:1037B0000000000000000000000000000000000009
:103AE0000000000000000000980900200000000015
:103AF000000000003C0400203C040020440400209E
:103B0000440400204C0400204C04002054040020F5
:103B1000540400205C0400205C04002064040020A5
:103B2000640400206C0400206C0400207404002055
:103B3000740400207C0400207C0400208404002005
:103B4000840400208C0400208C04002094040020B5
:103B5000940400209C0400209C040020A404002065
:103B6000A4040020AC040020AC040020B404002015
:103B7000B4040020BC040020BC040020C4040020C5
:103B8000C4040020CC040020CC040020D404002075
:103B9000D4040020DC040020DC040020E404002025
:103BA000E4040020EC040020EC040020F4040020D5
:103BB000F4040020FC040020FC0400200405002084
:103BC000040500200C0500200C0500201405002031
:103BD000140500201C0500201C05002024050020E1
:103BE000240500202C0500202C0500203405002091
:103BF000340500203C0500203C0500204405002041
:103C0000440500204C0500204C05002054050020F0
:103C1000540500205C0500205C05002064050020A0
:103C2000640500206C0500206C0500207405002050
:103C3000740500207C0500207C0500208405002000
:103C4000840500208C0500208C05002094050020B0
:103C5000940500209C0500209C050020A405002060
:103C6000A4050020AC050020AC050020B405002010
:103C7000B4050020BC050020BC050020C4050020C0
:103C8000C4050020CC050020CC050020D405002070
:103C9000D4050020DC050020DC050020E405002020
:103CA000E4050020EC050020EC050020F4050020D0
:103CB000F4050020FC050020FC050020040600207F
:103CC000040600200C0600200C060020140600202C
:103CD000140600201C0600201C06002024060020DC
:103CE000240600202C0600202C060020340600208C
:103CF000340600203C0600203C060020440600203C
:103D0000440600204C0600204C06002054060020EB
:103D1000540600205C0600205C060020640600209B
:103D2000640600206C0600206C060020740600204B
:103D3000740600207C0600207C06002084060020FB
:103D4000840600208C0600208C06002094060020AB
:103D5000940600209C0600209C060020A40600205B
:103D6000A4060020AC060020AC060020B40600200B
:103D7000B4060020BC060020BC060020C4060020BB
:103D8000C4060020CC060020CC060020D40600206B
:103D9000D4060020DC060020DC060020E40600201B
:103DA000E4060020EC060020EC060020F4060020CB
:103DB000F4060020FC060020FC060020040700207A
:103DC000040700200C0700200C0700201407002027
:103DD000140700201C0700201C07002024070020D7
:103DE000240700202C0700202C0700203407002087
:103DF000340700203C0700203C0700204407002037
:103E0000440700204C0700204C07002054070020E6
:103E1000540700205C0700205C0700206407002096
:103E2000640700206C0700206C0700207407002046
:103E3000740700207C0700207C07002084070020F6
:103E4000840700208C0700208C07002094070020A6
:103E5000940700209C0700209C070020A407002056
:103E6000A4070020AC070020AC070020B407002006
:103E7000B4070020BC070020BC070020C4070020B6
:103E8000C4070020CC070020CC070020D407002066
:103E9000D4070020DC070020DC070020E407002016
:103EA000E4070020EC070020EC070020F4070020C6
:103EB000F4070020FC070020FC0700200408002075
:103EC000040800200C0800200C0800201408002022
:103ED000140800201C0800201C08002024080020D2
:103EE000240800202C0800202C0800203408002082
:0C3EF00034080020FFFFFFFF000002006C
:040000050800083DAA
:00000001FF
